S02B0000433A2F55736572732F486F6D652F4465736B746F702F4F75747075742F44656275672F6E72663532A3
S113000000000420253500002F27000019250000DA
S113001000000000000000000000000000000000DC
S1130020000000000000000000000000CF270000D6
S113003000000000000000004D250000CD0A000073
S11300400F28000073280000F3280000A7290000EF
S11300501B2A00003F2A0000B32A0000132B0000D3
S1130060732B0000A72B0000DB2B00000F2C0000DB
S1130070432C0000A32C0000A72C0000A92C000096
S1130080AB2C0000AD2C0000AF2C0000B12C000004
S1130090B32C0000B52C0000B72C0000B92C0000D4
S11300A0BB2C0000BD2C0000BF2C0000C12C0000A4
S11300B0C32C0000C52C0000DF2C0000DF2C000046
S11300C0C72C0000C92C0000CB2C0000CD2C000054
S11300D0CF2C0000D12C0000D32C0000290C0000F0
S11300E0D52C0000D72C0000D92C0000DF2C0000F8
S11300F0DF2C0000DB2C0000DF2C0000DD2C0000D6
S1130100DF2C0000DF2C0000DF2C0000DF2C0000BF
S1130110DF2C0000DF2C0000DF2C0000DF2C0000AF
S1130120DF2C0000DF2C0000DF2C0000DF2C00009F
S1130130DF2C0000DF2C0000DF2C0000DF2C00008F
S1130140DF2C0000DF2C0000DF2C0000DF2C00007F
S1130150DF2C0000DF2C0000DF2C0000DF2C00006F
S1130160DF2C0000DF2C0000DF2C0000DF2C00005F
S1130170DF2C0000DF2C0000DF2C0000DF2C00004F
S1130180DF2C0000DF2C0000DF2C0000DF2C00003F
S1130190DF2C0000DF2C0000DF2C0000DF2C00002F
S11301A0DF2C0000DF2C0000DF2C0000DF2C00001F
S11301B0DF2C0000DF2C0000DF2C0000DF2C00000F
S11301C0DF2C0000DF2C0000DF2C0000DF2C0000FF
S11301D0DF2C0000DF2C0000DF2C0000DF2C0000EF
S11301E0DF2C0000DF2C0000DF2C0000DF2C0000DF
S11301F0DF2C0000DF2C0000DF2C0000DF2C0000CF
S113020070B56FF4001C4FF0FF3E1EF101054CF178
S113021000060024C7F6F074234200F0A180BEEB70
S113022040044FEA410444EAD0747CEB0404C0F077
S11302309780B5EB42054FEA430545EAD275AE41D6
S11302409FED590BC0F0898001F0004C21F000446F
S113025023F0004E131A7EEB040380F08480C1F374
S11302600A531BB1012464F31F511AE0B4FA84F356
S1130270B0FA80F1002C08BF01F12003A3F10B05B3
S113028004FA05F1C3F12B0420FA04F42143B3F179
S11302902B0458BF00FA04F14CBFA8400020C3F15E
S11302A00B035FEA1E5403D0012565F31F5E1CE0B7
S11302B0BEFA8EF4B2FA82F5BEF1000F08BF05F162
S11302C02004A4F10B050EFA05FEC4F12B0622FA54
S11302D006F64EEA060EB4F12B0658BF02FA06FEE5
S11302E04CBFAA400022C4F10B04A34213DD851ABB
S11302F071EB0E0605D4504081EA0E01084302D189
S113030012E005460E467000013B40EAD5716800D4
S1130310A342ECDC2346841A71EB0E0507D450404B
S113032081EA0E01084304D14CEC100B15E004469D
S11303300D46E80208D4680040EAD4706400013B2A
S113034029030546F7D500E02846002B16DD591E83
S1130350604400EB015040EC104B51EC100B70BDAD
S11303609FED110BF9E784EA0E0342401A4306BFDE
S113037000226146024641EC102BEEE7C3F1010175
S113038024FA01F2C1F1200600FA06F642EA060454
S11303906FF01E02D21A58BF20FA02F44CBFC840B4
S11303A000200021D4E700BF000000000000F87F17
S11303B041EC100BC1F30A52A2F1010C40F2FE739E
S11303C09C4554D240F2FE339A4206D82CA0002910
S11303D0A8BF083090ED000B46E040F232439A4249
S11303E042D8F0B5A2F2FF33B3F120024FF4801EDD
S11303F0C3F120040EFA04F540F20007CFF6F077BB
S113040007FA04F65CBF2EFA02F547FA02F606EA8A
S1130410000C2EFA03F64EBF1F4100264FF0FF37A3
S113042007EA010E15EB0C0546EB0E0620FA04F460
S113043001FA03F73C43002A58BF00FA02F46FF3B1
S11304401F5400FA03F048BF0443B4FA84F040098F
S11304500029A8BF40F0010000281CBF764665466D
S113046046EC105BBDE8F04051EC100B7047002ADD
S113047004BF01F00041104641EC100BF4E700BF4B
S1130480000000000000F0BF0000000000000000B9
S113049070B52DED028B04009FED158BB0EE480A6C
S11304A0F0EE680A15D0254648BF65429FED100B53
S11304B040F2F846C0F20006E80707D0D6E9002368
S11304C051EC100B00F02EFE41EC100B08366D08B9
S11304D0F2D156EC105B51EC180B2A46334600F06F
S11304E0B9FE002C5CBF31462846BDEC028B70BDC2
S10B04F0000000000000F03FD1
S11304F800000000000024400000000000005940F3
S1130508000000000088C3400000000084D7974121
S11305180080E03779C34143176E05B5B5B89346F3
S1130528F5F93FE9034F384D321D30F94877825ABF
S10B05383CBF737FDD4F157514
S113054001000000000000000A000000000000009C
S11305506400000000000000E80300000000000048
S11305601027000000000000A08601000000000029
S113057040420F0000000000809698000000000038
S113058000E1F5050000000000CA9A3B00000000ED
S113059000E40B540200000000E876481700000055
S11305A00010A5D4E800000000A0724E1809000055
S11305B000407A10F35A00000080C6A47E8D030028
S11305C00000C16FF286230000008A5D7845630154
S11305D0000064A7B3B6E00D0000E8890423C78ACD
S11305E0034C206804348047FBE700F003F8FEE77F
S10705F0743E000051
S11305F480B582B00020019042F22451C4F200017B
S11306044EF20000C0F2D710086042F20C51C4F25A
S113061400010620086042F21451C4F200010820CB
S1130624086002F049F843F6E820C0F2000002F042
S11306347EFE02F07BF850B943F61C20C0F20000A1
S113064402F075FE02F0C2F802F036F805E043F653
S11306540A30C0F2000002F06AFE42F2107000F0A8
S107066401F8E0E7CE
S113066880B582B001900198FFF7FAFF02B080BD0F
S113067880B5C2B043F61050C0F2000002A901913F
S11306884FF4807202F0F2F8019843F64A31C0F24E
S1130698000102F013FF002818BF012042B080BDFA
S11306A8BFF34F8F4EF60C51CEF20001086800F4E8
S11306B8E0600422C0F2FA5210430860BFF34F8F7F
S10706C800BFFDE787
S11306CC80B582B040F2E010C2F20000006810F86D
S11306DC180CD8B340F2B810C2F20000006868B32A
S11306EC40F2C410C2F20000006840F2E011C2F201
S11306FC0001096811F8181C401A083000900020F9
S113070C8DF807009DF8070040F2E011C2F20001D9
S113071C096811F8181C884210DA40F2B810C2F2B9
S113072C0000016800980078884700980130009018
S113073C9DF8070001308DF80700E3E740F2E01064
S113074CC2F200000168002001F8180C02B080BD50
S113075C80B582B000200190802080F3118840F293
S113076CD010C2F20000006830B940F2D011C2F2CD
S113077C000101200860019040F20000C2F2000068
S113078C4078102802D3992000F066F840F200005B
S113079CC2F20000407810B9002080F3118801984F
S10707AC02B080BD56
S11307B080B584B08DF80F000120029040F2C01083
S11307C0C2F20000006800909DF80F0000990870C4
S11307D000980130009040F2BC10C2F200000068A2
S11307E0C8B10298122800D315E040F2BC10C2F23E
S11307F000000068804701900198B0F1FF3F00DCE1
S113080009E001980099087000980130009002985E
S113081001300290E5E7802080F3118840F2C8118E
S1130820C2F200014FF47A700860029840F2E011BD
S1130830C2F20001096801F8160C40F20000C2F28D
S113084000004078102802D3992000F00BF840F201
S11308500000C2F20000407810B9002080F3118833
S107086004B080BD9F
S113086480B582B0ADF8060002F028FC40F2000125
S1130874C2F200010020487080F31188BDF806001C
S1130884A1F87400BDF8060000B1FBE702B080BD16
S113089440F22461C2F2000149F20000C0F2D030F7
S10708A4086070472D
S11308A880B502F003F978B140F20C11C4F20001EA
S11308B80020086040F21011C4F20001086040F200
S11308C83851C4F20001086002F020F9002800F051
S11308D8AA8040F20440C1F2000000684CF22051A2
S11308E8C4F20001086040F20840C1F20000006848
S11308F84CF22451C4F20001086040F20C40C1F2E9
S1130908000000684CF22851C4F20001086040F26B
S11309181040C1F2000000684CF22C51C4F20001EE
S1130928086040F21440C1F2000000684CF23051F3
S1130938C4F20001086040F21840C1F200000068E7
S11309484CF23451C4F20001086040F21C40C1F278
S1130958000000684CF24051C4F20001086040F203
S11309682040C1F2000000684CF24451C4F2000176
S1130978086040F22440C1F2000000684CF248517B
S1130988C4F20001086040F22840C1F20000006887
S11309984CF24C51C4F20001086040F22C40C1F200
S11309A8000000684CF25051C4F20001086040F2A3
S11309B83040C1F2000000684CF25451C4F2000106
S11309C8086040F23440C1F2000000684CF2605103
S11309D8C4F20001086040F23840C1F20000006827
S11309E84CF26451C4F20001086040F23C40C1F288
S11309F8000000684CF26851C4F20001086040F23B
S1130A084040C1F2000000684CF26C51C4F200018D
S1130A18086040F24440C1F2000000684CF2705192
S1130A28C4F20001086002F0A1F840B145F28C61FB
S1130A38C4F2000148F24810C0F20300086002F052
S1130A48AFF828B14FF21851C4F20001FB20086036
S1130A5802F0C0F860B140F6E461C4F2000108682D
S1130A6840F25822C1F20002126862F303000860DF
S1130A7802F0CAF830B149F24061C4F202014FF4FD
S1130A880070086002F0DAF868B140F20040C4F27D
S1130A9800000068C00730B140F20041C4F2000110
S1130AA86FF0010008604EF68851CEF20001086824
S1130AB840F470000860BFF34F8FBFF36F8FFFF7E8
S1070AC8E5FE80BD06
S1130ACC80B582B041F20000CEF200000068C0078D
S1130ADC30B940F2E411C2F2000108680130086038
S1130AEC40F20000C2F2000090F8780010B9A52082
S1130AFCFFF7B2FE40F20000C2F2000090F877104B
S1130B0C013180F877100078FF2802D19D20FFF77F
S1130B1CA3FE40F20001C2F20001019108780130F9
S1130B2C087000F0ABF90198C06B30B140F20000D2
S1130B3CC2F20000C06B0068804702F00DFB01F0AC
S1130B4CD3FE40F20000C2F200000078012813D159
S1130B5C40F20000C2F20000406868B140F20000AC
S1130B6CC2F20000C06B30B140F20000C2F20000CF
S1130B7CC06B806880470CE040F20000C2F20000B9
S1130B8CC06B30B140F20000C2F20000C06B406890
S1130B9C8047802080F3118840F20000C2F20000EC
S1130BAC007801281BD140F20000C2F2000040681A
S1130BBCA8B140F20000C2F2000090F8770010B91E
S1130BCC9820FFF749FE40F20001C2F2000191F8AF
S1130BDC7700013881F8770001F046FD12E040F20D
S1130BEC0000C2F2000090F8770010B99820FFF7CB
S1130BFC33FE40F20001C2F2000191F87700013893
S1130C0C81F8770040F20001C2F200010878013843
S10F0C1C0870002080F3118802B080BD35
S1130C2880B582B040F20000C2F2000090F878006B
S1130C3810B9A520FFF712FE40F20001C2F200012C
S1130C48019191F87700013081F8770000F018F9E4
S1130C580198802181F3118801780131017041786C
S1130C6801314170C06B30B140F20000C2F20000A3
S1130C78C06B0068804740F2B010C2F20000006800
S1130C8828B140F2B010C2F200000068804740F278
S1130C980000C2F200000078012813D140F20000DD
S1130CA8C2F20000406868B140F20000C2F20000DD
S1130CB8C06B30B140F20000C2F20000C06B806823
S1130CC880470CE040F20000C2F20000C06B30B173
S1130CD840F20000C2F20000C06B4068804740F256
S1130CE80000C2F2000041780139417000780128FF
S1130CF81BD140F20000C2F200004068A8B140F2E3
S1130D080000C2F2000090F8770010B99820FFF7AD
S1130D18A5FD40F20001C2F2000191F87700013804
S1130D2881F8770001F0A2FC12E040F20000C2F260
S1130D38000090F8770010B99820FFF78FFD40F273
S1130D480001C2F2000191F87700013881F87700B8
S1130D5840F20001C2F2000108780138087000204E
S10B0D6880F3118802B080BD84
S1130D7083B002904EF62C50CEF200000068C00FF3
S1130D8060B14EF62C51CEF20001086840F00040EC
S1130D900860029988690230886173E04EF6245035
S1130DA0CEF20000006840F22811C2F20001019165
S1130DB008624EF62850CEF20000007881F8240034
S1130DC04EF63450CEF20000006888624EF6295088
S1130DD0CEF20000007881F82C004EF63850CEF2A6
S1130DE00000006808634EF62A50CEF20000008826
S1130DF088864EF62C50CEF20000006888634EF6CA
S1130E003050CEF200000068C8634EF63C50CEF27B
S1130E1000000068086440F2DC11C2F20001002006
S1130E20086040F2DC10C2F20000006800B9F8E784
S1130E300298006840F22811C2F200010091086093
S1130E400298406848600298806888600298C06888
S1130E50C860029800690861029840694861029874
S1130E60806988610298C069C86140F2DC11C2F2ED
S1130E7000010020086040F2DC10C2F200000068AB
S10B0E8000B9F8E703B0704764
S1130E8880B501F029FF04280BD80146A320DFE828
S1130E9801F0090705030300A72003E0A62001E0E9
S10F0EA808BDA820BDE80840FFF7D8BC36
S1130EB480B501F013FF042809D80146A620DFE811
S1130EC401F003030704030008BDA72000E0A820E1
S10B0ED4BDE80840FFF7C4BCAF
S1130EDC30B591EA030F00F18280841A71EB030C94
S1130EEC05D2121953EB0C03001B71EB0C0140F2ED
S1130EFC000CCFF6E07C1CEA430F52D0BCEB410F44
S1130F0C5FD90C0DA4EB135E5FF0010C6CF31F5155
S1130F1C6CF31F53DEF1200C2AD303FA0CF54019A1
S1130F2C41F1000122FA0EF5401923FA0EF569413C
S1130F3C12FA0CF2CD0208D349085FEA30005FEADA
S1130F4C320228BF42F001020134013C5FEA500C2A
S1130F5C72F1004250F1000051EB04514FF40013B4
S1130F6C13EB410F38BF30BD6FF31301002030BDBC
S1130F7CBEF1200EBEF1200F1ED223FA0EF540193D
S1130F8C41F10001CEF1200C124218BF012203FAE8
S1130F9C0CF52A43CEE711EA5C0F04BF00200021B4
S1130FAC30BD1CEA410F04BF01F00041002030BDEC
S1130FBC01F00041002030BD21F4801101EB0451FB
S1130FCC30BD004218BF41F00101BCEB410F08BF1A
S1130FDC30BD4FF0FE4141F47801002030BD83F068
S1130FEC0043841A71EB030E07D28EF0004E001BE3
S1130FFC71EB0E01121953EB0E0340F2000CCFF6F9
S113100CE07C1CEA430FC6D0BCEB410F72D90C0D2B
S113101CA4EB135EC90241EA5051C00241F00041F5
S113102CDB0243EA5253D20243F00043DEF1200CBC
S113103C41D312FA0CF522FA0EF203FA0CF542EA39
S113104C050218BF42F0010223FA0EF3801A9941EB
S113105CE30AC4F30A0411F0404F03D418D0013C42
S113106C40004941013C23D44205C00A40EA4150A6
S113107CC90A51EAC3715FEA500C72F1004250F193
S113108C000051EB045130BD01002FD00020203C56
S113109C0029F9D0B1FA81FCDCF1200E11FA0CF123
S11310AC30FA0EF510FA0CF02943A4EB0C04D9E732
S11310BC0020D90730BDAEF1200EBEF1200F0DD2A9
S11310CCCEF1200C03FA0CF533FA0EF32A4318BFB5
S11310DC43F00103C01A61F10001B9E721F00041AA
S11310ECC00A40EA4150C90A01EB045130BD00204A
S11310FC002130BD004218BF41F00101BCEB410F8F
S113110C7FF467AFBCEB430F3FF463AF30BD00BF5C
S10B111C83F00043FFF7DCBE81
S1131124F0B540F2FF7681EA030C16EA115E1EBFA5
S1131134B64516EA1355B54252D021EA465141F454
S11311448011A1FB024723EA465343F48013AE44BF
S1131154A0FB03650CF0004C36197D41A1FB034749
S113116447F10003A0FB0217F619654153F100038C
S1131174094218BF46F0010640F2FE74B3F5007F3D
S113118413D2AEF5806EA64523D24CEA033128036C
S113119441EA155140EA16503203450872F10042FF
S11311A450F1000051EB0E51F0BDAEF2FF3EA645E6
S11311B40FD24CEAC321E80241EA555140EA5650A1
S11311C4F202450872F1004250F1000051EB0E5155
S11311D4F0BD1EEA0E0F2DD50CF000410020F0BD29
S11311E416EA115F04BF01F000410020004218BF59
S11311F441F0010116EA135F04BF03F00043002227
S1131204124218BF43F0010306EA1354B44218BF50
S1131214B64503D00CF000410020F0BD21F000419C
S113122423F00043B1EB065F0CD8B3EB065F09D897
S113123441B13BB10CF0004141F0FE4141F4700175
S11312440020F0BD40F20001C7F6F8710020F0BDA3
S11312542DE9F04391EA030E0EF0004E40F200072C
S1131264CFF6E07717EA41051EBFBD4217EA4305EE
S1131274BD4200F09F807F0D17EA135623EA4753BB
S113128443F4801317EA115521EA475141F48011BC
S1131294AD1B05F2FD354FEAD31C1CF1010C4FF0D4
S11312A40047B7FBFCF77F01A2FB079C0024E3FB88
S11312B407C4D9F100096CEB4C0CA0FB07620020B5
S11312C4E1FB072000275FEAC628E0FB0987760DC7
S11312D446EAC226520DF61900277A41E0FB0C6255
S11312E45FEAC823E2FB09375FEA585848EAC6288C
S11312F4760D18EB070800214E41E2FB0C8602EB45
S1131304C020DA02E6FB09215B0D43EAC8235FEA45
S113131458585B18002758EB0708E6FB0C38D10231
S1131324E8FB0917520D42EAC3225B0DD2190027C8
S11313347B41E8FB0C2308EBC6265FEAC128E3FBE8
S11313440987490D41EAC221520DC91942F100022B
S1131354E3FB0C12470019EB08095CEB010C72EB7C
S1131364040453EBC62047EB56530026B3F5000F91
S11313747641AD190236D6F1200910FA09F4F04089
S113138413FA09F21043F340E40F001943F1000384
S1131394B3F5001F24BF5B08013540F2FE77BD425C
S11313A404D24EEA05511944BDE8F0832D4224D5F4
S11313B4714626E0004218BF41F00101124218BFF1
S11313C443F00103B7EB410F2CBFB7EB430F1BE012
S11313D4B7EB410F04BFB7EB430F15E017EA410F16
S11313E404BF17EA430F0FE017EA410FE0D017EAEE
S11313F4430F02D0B7EB430FDAD04EF0FE4141F471
S113140470010020BDE8F08340F20001C7F6F871D2
S1071414F7E700BF33
S11314184FF4001C1CEB410F98BF1CEB430F11D871
S113142851EA030C50EA4C0C5CEA020C0CD004D2CE
S113143882428B41804101307047904299418041FA
S10F1448013070470020704701207047FD
S11314544FF4001C1CEB410F98BF1CEB430F0BD83B
S113146450EA410C08BF52EA430C07D0904206BF2D
S113147499420120002070470020704701207047E2
S11314844FF4001C1CEB410F98BF1CEB430F11D805
S113149451EA030C50EA4C0C5CEA020C0CD004D262
S11314A49042994180410130704782428B4180418E
S10F14B401307047002070470120704791
S11314C04FF4001C1CEB410F98BF1CEB430F11D8C9
S11314D051EA030C50EA4C0C5CEA020C0AD004D228
S11314E082428B4180414042704790429941804101
S10B14F04042704700207047E0
S11314F84FF4001C1CEB410F98BF1CEB430F11D891
S113150851EA030C50EA4C0C5CEA020C0AD004D2EF
S11315189042994180414042704782428B418041C8
S10B15284042704700207047A7
S11315300A15C90241EA5051C00241F0004140F28B
S11315401E439A1A08DA20320DD4D141D0404840C3
S11315509140D14048407047202A28BF202231FAC8
S113156002F0002170476FF000010846704700BF89
S1131570F9B140F23D42B1FA81F3D21AC3F1200C21
S113158030FA0CFC9840994051EA0C0183054FEA6B
S1131590D02040EA41504FEAD12101EB025138BF3B
S11315A07047013041F100011B4208BF20F00100E7
S11315B0704748B140F21D42B0FA80F3D21A984005
S10F15C0C10A400501EB0251704700BF56
S11315CC002B35D129B9B0FBF2FC0CFB120260469E
S11315DC7047914215D22DE9F041B2FA82F39A4048
S11315EC9940D3F1200C30FA0CFC51EA0C019840D0
S11315FC00F04EF8280036FA03F200210023BDE86F
S113160CF081F0B5B1FBF2FC0CFB1211B2FA82F3CF
S113161C9A409940D3F1200630FA06F631439840AB
S113162C00F036F8614628003200DA400023F0BDA1
S113163CF3B5B3FA83FC49085FEA300013FA0CF3F0
S113164CDCF1200432FA04F423430CB41A0000F045
S113165C1FF80CBC33FA0CF3DCF11F0C35FA0CF547
S113166C18BF013D03BCA5FB026705FB0377801B78
S113167CB941904271EB030C05D3821A71EB03034D
S113168C681C0021F0BD02000B0028000021F0BDF5
S113169C940D4FF6C2752D02B5FBF4F4D60A01363F
S11316AC04FB04F5A5FB0656F64306EB0416550895
S11316BC32BF00277708013505FB1677A6FB0747D1
S11316CC7F0807EBC63714001500E7FB02457F1BA8
S11316DC4D1C0400E7FB014505FB1206A64284BF22
S11316EC013DB618964224BF0135B61A704700BFA7
S11316FC2DE9F84F2DED028B90B0174689468346A1
S113170C0020CBF800000DF12500069019F8011B00
S113171C252906D0002900F02286584601F0FCFF4A
S113172CF4E70026494619F8012BA2F12003102BEB
S113173C0DD88020DFE803F0091B1B191B1B1B159C
S113174C1B1B30181B101B1B120040200DE05E2AC3
S113175C0DD14FF4805008E0102006E04FF40070D7
S113176C03E04FF4004000E020200643DAE701F1E7
S113177C0109A2F1300009284FF0000019D819F81A
S113178C011B00EB800002EB40003038A1F1300269
S113179C0A2A0A46F3D30CE057F8042B002A104605
S11317AC48BF5042102303EAD26216434A7801F12F
S11317BC02092E2A0BD1494611F8012B2A2A09D1E8
S11317CC99F8012057F8048B09F1020916E04FF03F
S11317DC00081CE0A2F13003092B4FF0000813D8C9
S11317EC11F8013B08EB880902EB4902A2F130081D
S11317FCA3F130020A2A1A46F2D38946B8F1000F33
S113180C58BF46F4807602E046F4807689466B2A0B
S113181C0ADC4C2A03D0682A18D06A2A28D119F871
S113182C012B46F0020623E06C2A05D07A2A14BF59
S113183C742A19F8012B1BE0494611F8012B6C2A68
S113184C10D199F8012009F10209EAE7494611F887
S113185C012B682A09D199F8012009F1020946F0F3
S113186C080605E046F0010601E046F00406894648
S113187C20EAE07A462A1FDDA2F1630015282FD84E
S113188CDFE810F05E0017004500230098011600F5
S113189C170016001600160016006C007C004E0093
S11318AC16001600790016004800160016003600C3
S11318BC2CE746F4804631E0442A09DD452A24D03D
S11318CC462A7FF423AF46F4005646F4006573E1D0
S11318DC252A40F05B825846252101F01DFF15E7AF
S11318EC472A00F06581582A7FF410AF46F400565D
S11318FCF0054FEA066048BF26F4007643F258011F
S113190C782A08BF43F278013FE046F4005646F4C7
S113191C806551E1F00548BF26F40076002036E0DE
S113192C3006232101EAE070089046F48076002109
S113193C57F8040B07974FF008080DF12604D1E073
S113194C17F8044BAAF1010858463146424601F0F7
S113195CDCFC5846214601F0DFFE9FE157F8040BEE
S113196C3107DBF8001000F11582B20752BF016099
S113197C002206C0CAE657F8044B6EE1F0054FEAA4
S113198C066048BF26F40076302101EAE070089026
S113199C70044FEA867004D4002808D43B1D00213F
S11319AC0BE0002815D457F8040BC11717E0F81DE9
S11319BC20F0070707F1080379680DF1260438684D
S11319CC7507079315D416F008051CBFC0B2002187
S11319DC28E0F81D20F00707796857F8080B0DF17B
S11319EC2604730708D4330744BF40F3C01140B234
S11319FC05E080B2002115E040F3C03100B20029AB
S1131A0C079707DBB3060BD47306089D48BF202544
S1131A1C089507E00023404263EB01012D2300E00D
S1131A2C2B230893F30548BF26F40076F30558BF1F
S1131A3C4FF0010800276E2A22DD6F3A092A00F2C2
S1131A4C7480DFE802F0054F727272722372724F67
S1131A5C50EA010269D0D446C20842EA4172062512
S1131A6C134665F3DF00E055013752EAD1004FEA23
S1131A7CD1014FEAD20040EA41721846F0D153E04A
S1131A8C582A2FD0642A18BF692A4ED150EA010271
S1131A9C4BD0CDF814A00C46054630040AD507F0FB
S1131AAC0300032806D10DF1260A2C200AF807009E
S1131ABC013701E00DF1260A28460A220023FFF71C
S1131ACC7FFD00EB8002A5EB420242F030020AF8E3
S1131ADC07200137D5F109020022A241DBD3DDF83E
S1131AEC14A022E0002750EA01021ED0B20443F6EF
S1131AFCA852C0F20002D4465CBF43F6B852C0F2FE
S1131B0C0002030943EA017500F00F002B46105C38
S1131B1CE055013755EA11104FEA11114FEA15102F
S1131B2C40EA01751846EFD1E246089C4FF0FF30AD
S1131B3CFF2C88BF0138A8EB070121EAE17807EBF9
S1131B4C0801AAEB010A002C18BF8244B00506D484
S1131B5C58463146524601F0D8FB4FF0000AFF2C90
S1131B6C069D04D9210A584601F0D6FD00E01CB1AB
S1131B7C5846214601F0D0FD58463146524601F0F4
S1131B8CC4FB58463021424601F016FE012F05DBFA
S1131B9CE95D584601F0C0FD013FF9D8F006079FF6
S1131BAC7FF5B4AD58462021524601F005FEADE553
S1131BBC46F4005646F44065E80558BF4FF0060855
S1131BCCF81D20F0070005F44061D0E90064A1F58C
S1131BDC4061B1FA81F1B8F1000F08BF4FEA511816
S1131BEC00F108073046214601F052FB002830462C
S1131BFC21460FD000220023FFF778FCC8B143F62E
S1131C0C3C44C0F20004A8045CBF43F64144C0F257
S1131C1C000420E001F02FFB002848D043F6C85400
S1131C2CC0F20004A8045CBF43F6CC54C0F2000418
S1131C3C11E015F4005043F64642C0F2000243F69C
S1131C4C4B41C0F20001104612BF541C08464C1CF8
S1131C5CA90648BF044625F48076002C04BF43F63D
S1131C6C7424C0F20004F005204602D401F042FEB4
S1131C7C02E0414601F054FE054626F40076AAEB38
S1131C8C000858463146424601F03FFB35B114F882
S1131C9C011B584601F040FD013DF8D1F0067FF5DB
S1131CAC35AD58462021424601F086FD2EE5CDF88F
S1131CBC14A03046214601F0F6FA002804BF04466D
S1131CCC064684F0004A3046214601F005FD089092
S1131CDC002808BFA246304651460FAA01F0FEFC6C
S1131CEC0F9800EB400046F26761C6F2666150FB48
S1131CFC01F0811001EBD0740F9430465146002250
S1131D0C0023FFF7A1FB0899002918BF45F06005D3
S1131D1C0895C0B9601CFEF7B5FB32465346FFF775
S1131D2CE5FB00280F9806D0411C0F910230F2E716
S1131D3C0F9801380F90FEF7A5FB32465346FFF778
S1131D4CB9FB0028F4D107970F99089800F4406761
S1131D5CB7F5806F07D0B7F5406F10D18845C8BF71
S1131D6C11F1050F0BDCB1F59A7F15D1DFF82026A4
S1131D7CDFF8203630465146FFF766FA13E040058B
S1131D8C61D50E2938DD4FF000085CE0002A7FF4A1
S1131D9CBDACF7E20170B9E44842FEF773FB32467E
S1131DAC5346FFF7B9F941EC180B54EC185B284671
S1131DBC214600220023FFF747FB0028089E40F031
S1131DCCED802846214601F063FA002200282846BB
S1131DDC214600F0B1800023FFF788FB002800F0B7
S1131DEC7A8143F63C44C0F20004B0045CBF43F671
S1131DFC4144C0F2000480E1C84340444FF0100851
S1131E0C1028B8BF8046089A12061CD4D8B1404694
S1131E1CFEF738FB32465346FFF77EF9DFF884357C
S1131E2C0022FFF755F8FEF7BDFADFF86C350022F7
S1131E3CFEF7E0F900220023FFF706FB10B1B8F11E
S1131E4C0108E4D10F99C8F1000010398142C8BFD0
S1131E5C0846FEF717FB4FF0FF3201F033FA324617
S1131E6C5346FFF735F804460D460F980130FEF73C
S1131E7C09FB22462B46FFF7C9FA00280F9818BF16
S1131E8C01300028C24615D41128089F19D3A0F19B
S1131E9C10010F91C0F11000FEF7F4FA22462B4604
S1131EACFFF73AF9FFF73EFB064688460020CDE9DA
S1131EBC030018E0CDE9034500260F96B046089BB5
S1131ECC12E020462946FFF72DFB06468846FFF70D
S1131EDC49FB02460B4620462946FFF719F9CDE982
S1131EEC030100200F903B4623F4806740F24050DE
S1131EFCC0F200000830002500F10801013505C8C6
S1131F0C301A78EB02000846F6D20598CDF814A0E6
S1131F1CA0EB0A0003F0800151EA0A014FF0FF32F2
S1131F2C1CBF1146013A13F0600F08BF0A460F9903
S1131F3C511A0844441B19E1DFF85C34FFF79CFA8E
S1131F4C0F9D88B151EC180BDFF84C44002223464A
S1131F5CFFF77AF941EC180B00222346FFF78CFAB1
S1131F6C01350028EED10F9551EC180BDFF82C3409
S1131F7C0022FFF7BBFA88B151EC180BDFF81834C8
S1131F8C0022FFF7C9F841EC180BDFF810340022DB
S1131F9CFFF7ACFA013D0028EED10F95B7F5406F71
S1131FAC474608BF013FB8F1000F18BFB846C8F147
S1131FBC0000FEF767FA4FF0FF3201F083F953EC9F
S1131FCC182BFEF785FF04468A46DFF8CC33002233
S1131FDCFFF752FA58B1DFF8C033204651460022BD
S1131FECFFF732F904468A460F9801300F90049497
S1131FFCB8F1000F059D42D006F40860B0F5006FEF
S113200C3ED1B8F1100FA8BF4FF010084046FEF7B0
S113201C39FA22465346FFF77FF8FFF783FA064650
S113202C08432CD00C464CF6CD42CCF6CC42A6FB45
S113203C0201531E06FB031104FB0211C20742EA00
S113204C5102C90741EA5000D0F1993049F6991070
S113205CC1F699104746904112D3304621460A22C4
S113206C0023FFF7ADFA06460C460A220023FFF7BD
S113207CA7FA013F04D052EA0300EED000E0002797
S113208C089901F080003843A5EB07000F9E0CBFA4
S113209C441F841F0125C80443D545F25650C5F28C
S11320AC555056FB00F000EBD07000EB4000301A9A
S11320BC0230DFE800F0032834032800B64B049800
S11320CC51460022FFF728F804908A46013E0F96E9
S11320DC013C022523E016F4005043F64642C0F2BC
S11320EC000243F64B41C0F20001104612BF541CCF
S11320FC08464C1CB10648BF0446079FDDF814A0E3
S113210C26F48076A9E5A64B049851460022FFF7E5
S113211C03F804908A46023E0F96023C032527EAF4
S113212CE7770296514605970898DDF810A020F43D
S113213C0060019050460F46FFF7F4F906468846B6
S113214CFFF710FA02460B4650463946019FFEF73C
S113215CDFFFCDE90301089810F0600F18BF013CB4
S113216C029801F0D5FA6328C8BF013C24EAE47A4A
S113217C17F4047F0DD1012C0BDB40F24054C0F258
S113218C00045846202101F0C7FABAF1010AF8D12B
S113219C03E040F24054C0F20004B8064FEA476032
S11321AC03D4002808D5202103E02D21002858BF92
S11321BC2B21584601F0B0FAF80609D4BAF1000FF5
S11321CC06D05846302101F0A7FABAF1010AF8D129
S11321DC013D04EBC50006C8701A78EB02003020F0
S11321EC07D3761A68EB02080130731A78EB0203F2
S11321FCF7D2C1B2584601F08FFA002DE8D13C0554
S113220C0BD50F98012808DB01380F905846302164
S113221C01F082FA0F980028F6DC07F08000059D87
S113222C284341D058462E2101F076FA1020102D67
S113223CB8BF2846002C0F9920EAE078404648BFE6
S113224C401AFEF71FF9012D22DBDDE90323FEF70B
S113225C63FFFFF767F905460E464446013C40F21E
S113226C4050C0F2000000EBC40006C8681A76EBBC
S113227C0200302006D36D1A964101306B1A76EBAE
S113228C0203F8D2C1B2584601F046FA002CE5D14B
S113229C0599B1EB080007D0A8EB0104584630218E
S11322AC01F03AFA0134F9D378054AD54521B8043A
S11322BC58BF6521584601F02FFA0F98002858464C
S11322CC04DB2B2101F028FA0F9805E02D2101F0F5
S11322DC23FA0F9840420F90642815DB48F21F54E0
S11322ECC5F2EB14A0FB0401302000EB511158464D
S11322FC01F012FA0F9850FB04F14A1102EBD17160
S113230C642201FB12000F9046F26764C6F2666405
S113231C50FB04F0811001EBD07000F130015846F1
S113232C01F0FAF90F9850FB04F18A1002EBD17109
S113233C01EB8101A0EB410000F13001584601F0A2
S113234CEBF9BAF1000F079F3FF4E0A9584620219E
S113235C01F0E2F9BAF1010AF8D1FFF7D7B9DBF8C9
S113236C0C0028B1DBE9001291423CBF002242541C
S113237C584601F013FADBF8000010B0BDEC028BE8
S113238CBDE8F88F584601F009FA4FF0FF30F4E736
S113239CA0C8EB85F3CCE17F000024400000F03FA3
S10B23AC000059400000E03F6D
S11323B45AB3844690EA01039B071FD1830707D0CD
S11323C411F8013B00F8013B013AF7D11CE08446C3
S11323D4203A09D32DE9F007B1E8F807A0E8F80793
S11323E4203AF9D2BDE8F0071C3205D451F8043B75
S11323F440F8043B043AF9D2043205D011F8013B05
S10F240400F8013B013AF9D16046704732
S113241000220B0011001A0084465AB3830704D02B
S113242000F8011B013AF9D124E0C9B241EA0121C3
S113243041EA0141202A11D3203A2DE9F0030B4649
S11324400C460D460E460F4688468946A0E8FA0318
S1132450203AFBD2BDE8F00320320BD0042A05D386
S113246040F8041B043A05D0042AF9D200F8011BF1
S10B2470013AFBD160467047FC
S1072478200000003C
S10F247CB23B0000A824000088240000EB
S1132488C5390000E539000009350000F1390000BC
S1132498113A000017350000FB34000091390000A0
S11324A8B43B0000CA3C0000CA3C0000CA3C00001F
S11324B8CA3C0000CA3C0000CA3C0000CA3C0000F8
S11324C8CA3C0000CA3C0000FFFFFFFFFFFFFFFFFC
S11324D8FFFFFFFFFFFF0000783B00007C3C00008B
S11324E87B3A0000993C0000D23A00006A3C0000A4
S10B24F8733C0000D93A000016
S113250003480449091A08B501F0EEF90CBC184750
S10B251030060020300B00200E
S11325181EF0040F0CBFEFF30880EFF309800149A4
S10B252808470000710D0000DA
S11325300321044802680A430260034802680A430C
S10F254002607047240500405405004070
S113254C4E48816859B91EF0100F1CBF08B015E035
S113255C4B490A6822F001020A601AB00EE0EFF34C
S113256C09821EF0100F03D1A2F1400282EC108AF2
S113257CA2F128024A60036882E8F84F414988476F
S113258C8168C1B14A6892E8F84F036002F12802ED
S113259C1EF0100F01D1B2EC108A82F309889069F5
S11325AC3949884202DB394A904203DB4FF000017F
S11325BC81F311887047364836490968401A80F30C
S11325CC08884FF08071C161334981617FF0060E38
S11325DC704701BC31488047204602BC88475DF8EF
S11325EC04EB2F490847002809D0EFF314816A46FD
S11325FC7346A0E8FE0F80EC108A2A4880472A48CC
S113260C24490968401A20F0070080F308884FF029
S113261C00011A48417081F3118862B623494FF0C6
S113262C80520A60BFF34F8FBFF36F8FFEE7B0E8A1
S113263CFE0F81F31488BFF36F8F95469E4690EC82
S113264C108A704703680CB44FF00001417081F399
S113265C118816494FF080520A60BFF34F8FBFF3B5
S113266C6F8F0CBC0360704710494FF080520A60A6
S113267CBFF34F8FBFF36F8F704700000000002033
S113268C34EF00E0392D00005126000072260000C2
S113269CE0FF032078240000A52C0000D5350000B1
S11326AC19310000DF3000000000042004ED00E0CC
S11326BC80B582B0002001900198022829DCFDF736
S11326CCD5FF68B943F6B630C0F2000000F02BFE1B
S11326DC4FF4FA60FDF7C2FF019801300190EBE76B
S11326EC00F090F838B143F6DB30C0F2000000F093
S11326FC1AFE02B080BD43F62030C0F2000000F098
S113270C12FE0198013001904FF4FA60FDF7A6FF18
S113271CD2E743F6DC40C0F2000000F004FEFDF703
S105272CBDFFEB
S105272EFEE7C0
S113273080B5C4B043F61850C0F2000004A901915A
S11327404FF48072029200F095F80199029A43F6D0
S11327502450C0F2000000F08DF80199029A43F66B
S11327603850C0F2000000F085F80199029A43F64F
S11327707450C0F2000000F07DF80199029A43F60B
S11327805220C0F2000000F075F80199029A43F655
S11327908850C0F2000000F06DF8019843F698519B
S11327A0C0F2000100F08EFE0199029A002818BFC1
S11327B001208DF80F0043F69C50C0F2000000F099
S11127C059F89DF80F0000F0010044B080BDF0
S10527CEFEE720
S11327D080B5C2B043F66920C0F2000002A900919E
S11327E04FF48072019200F045F80099019A43F683
S11327F02F40C0F2000000F03DF80099019A43F622
S11128006E30C0F2000000F035F842B080BD2A
S105280EFEE7DF
S113281080B5C2B043F65030C0F2000002A9019165
S11328204FF48072009200F025F8009A019943F663
S11328304720C0F2000000F01DF8009A019943F609
S11328402240C0F2000000F015F8009A019943F606
S11328505A30C0F2000000F00DF8019843F66431DC
S1132860C0F2000100F02EFE002818BF012042B083
S105287080BD25
S1052872FEE77B
S113287480B586B00590049103920598007842F2DD
S11328841C51C4F200010860002002900299039ACA
S113289400209142019006D242F21850C4F2000082
S11328A40068002001900198C00758B142F2185002
S11328B4C4F2000000680499029A88540298013012
S11328C40290E3E70499029A00208854059943F698
S11328D4FC30C0F2000000F02AFD049943F60D40D8
S11128E4C0F2000000F023FD012006B080BD0C
S10528F2FEE7FB
S11328F480B582B000F011FC002850D040F2D8100A
S1132904C2F20000006838B900F04CF840F2D81163
S1132914C2F200010120086040F2E010C2F200009B
S1132924006810F8170CD0B340F2C810C2F20000CB
S1132934006870B140F2C810C2F2000001680139A5
S11329440160006828B940F2E811C2F200010120D4
S1132954086040F2E810C2F200000068D8B140F206
S1132964E010C2F20000009001680020019001F818
S1132974170C40F2E811C2F20001086040F2CC11D5
S1132984C2F20001086000F047F800990198096850
S113299401F8180C03E0FDF797FE00F04FF802B0BD
S10529A480BDF0
S10529A6FEE746
S11329A881B04EF60850CEF20000006800900098FE
S11329B8006840F2E011C2F2000108600A680020D1
S11329C802F8170C0B68082203F8022C0B68122271
S11329D803F8032C0A6802F8180C0A6802F8160CA3
S11329E80B68522203F8012C0A68153A40F2C01306
S11329F8C2F200031A600968203940F2C412C2F214
S1132A080002116040F2CC11C2F20001086001B06A
S1052A18704701
S1052A1AFEE7D1
S1132A1C80B540F2BC10C2F20000006840B140F234
S1132A2CBC10C2F2000000688047002800D4F6E70E
S1052A3C80BD57
S1052A3EFEE7AD
S1132A4080B540F2E010C2F20000006810F8160CE5
S1132A5070BB40F2C811C2F200010020086040F2CD
S1132A60CC10C2F20000006868B140F2FC50C2F21F
S1132A7000000078FDF79CFE40F2CC11C2F2000188
S1132A800020086014E040F2B410C2F200000068B4
S1132A9070B1FDF763FE58B140F2B410C2F2000009
S1132AA00068804740F2D011C2F2000100200860A3
S1052AB080BDE3
S1052AB2FEE739
S1132AB481B040F23010C1F20000006808281FD130
S1132AC440F23410C1F20000006818B901208DF8F6
S1132AD4030018E040F23410C1F200000068012839
S1132AE403D101208DF803000DE040F23410C1F24B
S1132AF400000068022803D101208DF8030002E0DD
S1112B0401208DF803009DF8030001B0704716
S1052B12FEE7D8
S1132B1481B040F23010C1F20000006808281FD1CF
S1132B2440F23410C1F20000006818B901208DF895
S1132B34030018E040F23410C1F2000000680128D8
S1132B4403D101208DF803000DE040F23410C1F2EA
S1132B5400000068022803D101208DF8030002E07C
S1112B6401208DF803009DF8030001B07047B6
S1052B72FEE778
S1132B7481B040F23010C1F200000068082809D185
S1132B8440F23410C1F20000006818B901208DF835
S1132B94030002E000208DF803009DF8030001B057
S1052BA4704774
S1052BA6FEE744
S1132BA881B040F23010C1F200000068082809D151
S1132BB840F23410C1F20000006818B901208DF801
S1132BC8030002E000208DF803009DF8030001B023
S1052BD8704740
S1052BDAFEE710
S1132BDC81B040F23010C1F200000068082809D11D
S1132BEC40F23410C1F20000006818B901208DF8CD
S1132BFC030002E000208DF803009DF8030001B0EF
S1052C0C70470B
S1052C0EFEE7DB
S1132C1081B040F23010C1F200000068082809D1E8
S1132C2040F23410C1F20000006818B901208DF898
S1132C30030002E000208DF803009DF8030001B0BA
S1052C407047D7
S1052C42FEE7A7
S1132C4481B040F23010C1F20000006808281FD19E
S1132C5440F23410C1F20000006818B901208DF864
S1132C64030018E040F23410C1F2000000680128A7
S1132C7403D101208DF803000DE040F23410C1F2B9
S1132C8400000068022803D101208DF8030002E04B
S1112C9401208DF803009DF8030001B0704785
S1052CA2FEE747
S1052CA4FEE745
S1052CA6FEE743
S1052CA8FEE741
S1052CAAFEE73F
S1052CACFEE73D
S1052CAEFEE73B
S1052CB0FEE739
S1052CB2FEE737
S1052CB4FEE735
S1052CB6FEE733
S1052CB8FEE731
S1052CBAFEE72F
S1052CBCFEE72D
S1052CBEFEE72B
S1052CC0FEE729
S1052CC2FEE727
S1052CC4FEE725
S1052CC6FEE723
S1052CC8FEE721
S1052CCAFEE71F
S1052CCCFEE71D
S1052CCEFEE71B
S1052CD0FEE719
S1052CD2FEE717
S1052CD4FEE715
S1052CD6FEE713
S1052CD8FEE711
S1052CDAFEE70F
S1052CDCFEE70D
S1052CDEFEE70B
S1132CE0EFF30580002808BF704720F00101022996
S1132CF00ED00E2804BF042070470F280AD94EF2C4
S1132D00F031CEF200014056002844BF0120704744
S1132D1002207047011F0B29FAD889B240F68712A6
S1112D2022FA01F1C907F3D04EF61451E9E787
S10D2D2E4FF60040C2F203007047A4
S1132D382DE9F04140F20004C2F200040025657058
S1132D4801202070802080F31188606B50B1617875
S1132D58013161708047607884F87A50C4E90D5570
S1132D680138607085F31188FFF7DDFF0078CD28FE
S1132D781CBF7D20FDF772FDA06898B1C16A09786F
S1132D88CD2904D07820FDF769FDA06850B1054627
S1132D9855F8441F31B140682968096888476D6847
S1132DA8002DF9D194F87C00B8B1A06821790029E4
S1132DB894F87B1080F851100FD0802080F311888C
S1132DC8A1680020207180F3118800291CBF0B68BA
S1132DD8002B40F0FA8080F3118894F87900E8B168
S1132DE8C0070FD000F01FFA40F2D411C2F200015C
S1132DF80968081A06D594F8790010F0FE0084F8DA
S1132E0879000BD000F026FCA16800291FBF226FAF
S1132E188B6B821A1A4418BF8A632067A06830B182
S1132E2890F85010002902BF416B01314163E069F9
S1132E3898B3802686F31188E5698DB34FF00008AE
S1132E4895F8507067B378070FD5E868E16A411AB6
S1132E58002904DD216B411A48BF206305E0284698
S1132E6800F0D5F895F85000B8B107F0FB00102829
S1132E7809D1A8688068406890F8501019B9296980
S1132E880069884209D12868E06188F3118886F3CB
S1132E981188E569002DD3D102E0802080F31188E0
S1132EA86079B8B300266FF0004880276671E06A3D
S1132EB8A16A4044206300291CBF2046884786F342
S1132EC81188A5690DB387F31188E06918B1006901
S1132ED8296981421BD395F85000400711D5E86849
S1132EE8E16A411A002908DC284600F090F887F3C3
S1132EF8118895F8500050B1E868216B411A48BF11
S1132F08206386F311882D68DCE787F311886079DC
S1132F180028CBD16060E569002D44D095F85000B5
S1132F28B8B1A868806846683068316A00280860C3
S1132F3818BF01622969E06B316100281EBFC168AE
S1132F4830468847012060703046294600F0F6FA7A
S1132F58E661E069A06018B98020FDF77FFCA068ED
S1132F6890F853100F2903D08020FDF777FCA06850
S1132F78054655F8441F39B14068296849688847A7
S1132F886D68002DF9D1A06890F85120E16B84F8A0
S1132F987C2084F87B2011B149698847A068016BBB
S1132FA8013101630BE0E06B00281CBF406A8047D5
S1132FB80020A4F87B00A060207080F3118840F200
S1132FC80000C2F20000BDE8F0810F691A69BA4234
S1132FD87FF401AF1A461B6813B11E69BE42F9D0CB
S1132FE8802383F311880B68E7698F4208BFE36184
S1132FF80E6A336017681E620A620F60002F18BFDA
S1113008396292F85230116082F85130E3E6DA
S113301638B540F20004C2F200040546E06B00280D
S11330261EBFC16928468847A86840B103C8E26A3A
S1133036EA60002818BF41600022AA60086095F87B
S1133046500010F0030085F8500000D038BDE06948
S113305618B102692969914220D9E56120780028CE
S11330664FF0010001D060710CE0E16B207021B1DA
S1133076A0680A6A90F8501090472046FFF7E5FAD0
S1133086002020706078102824BF9920FDF7E7FB04
S113309660780028DAD180F3118838BDA842DDD0E3
S11330A6914218BF38BD2A461268002AEAD013692D
S10D30B69942E7D18242F7D1CFE737
S11330C010B540F20004C2F200042078FF2804BFC7
S11130D09D20FDF7C7FB20780130207010BD55
S11330DE70B5FFF725FE40F20006C2F20006054663
S11330EEF068446800F01DFA291B0D18F068016F92
S11330FE8D4203D9FB20FDF7AEFBF068C06E21466E
S10D310E2A46BDE87040FFF74EB9F1
S10931189B20FDF7A3BBA0
S113311E10B540F20004C2F20004E06B00281EBF9A
S113312E816A4FF4AC708847FFF7D3FD012801BFC5
S113313E94F877000028A420FDF78DFBFDF7B3FE6D
S113314EE06B94F8764020B1C26C4FF4AC7021461B
S109315E9047204610BD5D
S113316438B540F20004C2F20004E06B00281EBF2C
S1133174816A4FF491708847FFF7B0FD01281CBFA2
S1133184A220FDF76DFBFFF7A9FD012801BF94F808
S113319477000028A420FDF763FBFDF789FE40F2C5
S11331A42060C2F20000006801281CBF4FF4807044
S11331B4FDF756FB40F22860C2F2000000680128C3
S11331C41CBF4FF48070FDF74BFBA06B20B10120B2
S11331D4607184F87A0018E0D4E90401226BE36A8C
S11331E4013041F10001C4E90401581CE062801A71
S11331F45CBF0120607194F87B00013805D384F826
S11332047B00000604BF01202071A56C1DB1686811
S113321480472D68FAE7E06B002808BF38BD816C4D
S10D32244FF49170BDE838400847EC
S113322E10B5FFF756FD012840F20004C2F2000467
S113323E01BF94F877000028A420FDF70CFBFDF7DE
S109324E32FEE06A10BD2F
S1133254F8B51D4617460C460646184600F002FB10
S1133264002803D407FB04F2A24201D20020F8BDD3
S11132742846314600F070F8B0FBF4F0F8BDC7
S1133282490041EAD0710022B2EB40001046CFF669
S10D3292E07088418041404270471B
S113329C21F0004181F0E04181F07F610843B0FAF4
S10932AC80F040097047A8
S11332B24A0042EAD07010F5001F804140420022C9
S11132C2C7F6F072114018BF01210840704792
S11332D041EC100BC1F30A53002B1CBF40F2FF7CDE
S11332E0634502D151EC100B70471A44624506DB6A
S11332F00020C7F6F07060F31E01002008E0002AE9
S1133300C7BF6FF31E5141EA025101F00041002092
S109331041EC100BE6E79E
S1133316CB0648BF704789054CBF3021202100F0F9
S10533264EBA99
S10D3328436A08460121FFF791BF34
S113333283B000B582B0844603A80EC040F2146084
S1133342C2F2000003AA00680192614600F047FA43
S10D335202B05DF804EB03B070470D
S109335C006800F096B8C1
S113336240F28000C2F2000003210161416143F690
S11333726142C0F20002826140F2EC11C2F2000129
S1133382C1614FF480610162002181624162C162C4
S1133392026640F2EC52C2F20002426610228266D7
S11333A20167C1664167BFF35F8F43F65042C0F2C3
S11333B2000281F00F03D35C435401311029F8D188
S10933C2BFF35F8F7047AA
S11333C80146C0680A6982426FEA000010449CBF43
S10933D8896808447047F7
S11333DE2DE9F843144688460546C7684FF00009A0
S11333EE2869F943B8420844A96898BF0844CE1B1B
S11333FEB04238BF06466868A642384428BF2646FF
S113340E41463246FEF7CFFFA868F1190F1A18BFCE
S113341E0F46BFF35F8FEF60A41BB044B144DFD1FE
S109342E4846BDE8F883E6
S113343470B50D4600EB400040F28001C2F2000179
S113344401EBC00000F11806C06A022817D0144624
S1133454012807D020B93046FFF7B4FFA04207D2B1
S113346400240AE03046FFF7ADFFA04238BF04460B
S113347430462946224600F013FA204670BD3046F1
S10D34842946BDE87040FFF7A8BF19
S113348EF8B51446064640F28000C2F200000D461E
S113349E0078002808BFFFF75DFFEFF311874FF0A8
S11334AE200181F31188304629462246FFF7BBFFDF
S10934BE87F31188F8BD3C
S11334C40A78002A08BF704790F800C0BCF1000FC6
S11334D40FD00023CA5C944507D1C218013392F873
S11334E401C0BCF1000FF5D1CA5C1AB110F801CFC8
S10934F4ECE70020704724
S11134FA7F298EBF6FF0010001700120704722
S1113508A0F141011A2938BF40F0200070479D
S1113516A0F141011A2938BF40F0200070478F
S10F3524FFF704F8FDF7BEF9FDF758F8B6
S11335304FF60040C2F2030040F20001C2F204015F
S1073540081A7047AA
S113354438B50D4604460069002804BFCB20FDF7B6
S113355487F9FFF7B3FD206935B129682562216035
S11335642C60D1B10A690CE040F21801C2F20001E6
S11335740B46096871B10A699042F9D32362216048
S11335841C600C62824214BF002094F8520084F838
S1133594510002E0236221601C6094F8500098B941
S11335A4802080F311882046FFF733FD40F20004A5
S11335B4C2F200046078102824BF9920FDF750F962
S11335C4607808B980F31188BDE8384000F010B879
S11335D440F20000C2F20000C16E00291EBF8268DE
S11335E40023C2E91113806E002808BF7047004706
S11335F410B540F20004C2F200042078002804BF8D
S11336049720FDF72DF9207801382070207800B137
S113361410BD60680028FBD0802080F311886068A6
S113362468B1E16B0120207021B1A0680A6A90F8A6
S1133634501090472046FFF709F800202070607866
S1133644102824BF9920FDF70BF96078002818BFCF
S10B365410BD80F3118810BDC4
S113365C2DE9F04140F26C15C2F20005E86800282F
S113366C04BFEB20FDF7F8F82869002804BFEC2010
S113367CFDF7F2F8802080F3118840F20006C2F2C4
S113368C0006E868D6E90478804704462869804730
S113369C28B10137E86848F100088047044670787F
S11336AC102824BF9920FDF7D7F8707808B980F357
S11336BC11886869A7FB001208FB002200232F7AEB
S11336CC001B63F10008002F1CBF984620464018CD
S10B36DC48EB0201BDE8F08196
S10736E4C80F704750
S11336E841EC100BC1F30A5C40F2FF739C4518BF10
S11336F8BCF1000F02D10020106008E0ACF2FE33E8
S1133708136040F2FE3262F31E5141EC100B51EC8F
S1073718100B7047D7
S10B371C002848BF4042704739
S113372410B582B0044600698DF8071078B1D4E965
S113373400239A4231D26269531C63618154D4E9EF
S11337440501884229D1204600F02CF825E0E068E0
S113375450B1D4E9002C62451FD2531CB3EB0C03C3
S113376418BF0B46835418E0A06858B1D4E9002C60
S1133774624512D2531CB3EB0C0318BFCBB240F80E
S113378422300AE0236A43B1D4E90001884204D216
S11337940DF107012046012298472068013020607A
S10737A402B010BD9E
S11337A84269002A08BF704710B50446036A002B13
S10F37B81CBF216998470020606110BD0F
S11337C4012AB8BF704770B514460D460646304604
S10F37D42946FFF7A5FF013CF9D870BDA1
S11337E070B514460D46064600F0C6F8014630464C
S10F37F02A462346BDE8704000F000B8F3
S11337FC2DE9F04F03AF8DB047F83C3C91460C4695
S113380C064600F047F80546EB46073020F0070063
S113381CADEB0008C546A7F1380A50460021242216
S113382CFEF7F4FD43F22930C0F2000047E90740EB
S113383C6FF0004047F8340C47F8146C47F8205CE0
S113384C47F8288C5046494657F83C2CFDF750FF56
S10F385CDD46A7F10C04A546BDE8F08F82
S113386840F21461C2F2000140F218620968091AB0
S1133878C2F2000218BF01211268121A18BF0122ED
S1133888114040F21C62C2F200021268101A18BFFA
S10B3898012008404042704782
S10738A04020704709
S11338A42DE9F0411546884604464068D4E90216D9
S11338B430448F1BBA42414605D2FEF779FD3544A4
S11338C4BFF35F8F0BE03A46FEF772FD08EB070186
S11338D4ED1B60682A46FEF76BFDBFF35F8FE5605E
S10738E4BDE8F081C6
S11338E8082938BF7047416040F2AC11C2F20001A8
S10B38F8086000210160704723
S11339000178002904BF0020704700214FF00132E4
S11339104358C2FA53F30431002BF9D093FAA3F0BD
S10F3920B0FA80F001EBD00004387047CE
S113392C00291CBF0278002A01D10020704700B581
S113393CD0F800E00429034609D34FF0013CCCFA3B
S113394C5EF222B9043953F804EF0329F7D8181A94
S113395C4FF00132C2FA5EF292FAA2F2B2FA82F299
S10F396CB1EBD20F88BFD108084400BDA5
S113397840F2A810C2F200000068002804BF40F218
S10B39880060C2F20000704768
S113399084460020002918BF002A00D17047097806
S11339A048B2002844BF6FF001007047BCF1000F1B
S11339B018BFCCF800100021C3E90011002818BF7B
S10739C00120704727
S11339C47F2884BF0020704743F6CB42C0F2000234
S11339D4515C43F6D052C0F20002105C08407047B8
S10F39E4A0F161011A2938BF2038704797
S11339F07F2884BF0020704743F6CB42C0F2000208
S1133A00515C43F6D052C0F20002105C084070478B
S10F3A10A0F161011A2938BF203870476A
S1133A1C5B4552524F525D2054656C656D657472F2
S1133A2C79206661696C656421205265636F6E6EE2
S10E3A3C656374696E672E2E2E0A006D
S10E3A4741542B43474154543D3100CF
S1133A527B2270656F706C655F636F756E74696EDF
S10A3A6267223A32357D00B2
S10E3A6941542B43474154543D3000AE
S10A3A74286E756C6C29003B
S1133A7B4A616E756172790046656272756172791D
S1133A8B004D6172636800417072696C004D61791D
S1133A9B004A756E65004A756C79004175677573DC
S1133AAB740053657074656D626572004F63746F57
S1133ABB626572004E6F76656D6265720044656374
S10A3ACB656D6265720000E5
S10A3AD2414D00504D0000BE
S1123AD9256120256220256520255420255900CC
S1133AE85B54454C454D455452595D2053656E64AD
S1133AF8696E672074656C656D657472792E2E2EF7
S1053B080A00AD
S1133B0A5B54454C454D455452595D205375636386
S1093B1A6573732E0A001E
S1133B205B4E4554574F524B5D20436F6E6E656339
S1133B3074696F6E206661696C65642C20726574AB
S10D3B407279696E672E2E2E0A00BA
S1093B4A2B434349440033
S10D3B5041542B434F50533D300005
S10D3B5A41542B43455245473F00F8
S10D3B642B43455245473A20310037
S10D3B6E41542B434F50533D3200E5
S1133B7853756E646179004D6F6E64617900547594
S1133B886573646179005765646E6573646179006F
S1133B985468757273646179004672696461790066
S10D3BA853617475726461790000C2
S1053BB24300CA
S1053BB42E00DD
S1133BB65B53494D5D2053494D20636865636B2013
S1133BC66661696C65642C207265747279696E67C6
S1083BD62E2E2E0A0052
S1133BDB5B4E4554574F524B5D20436F6E6E65637E
S1133BEB74656420746F206E6574776F726B2E0A24
S1043BFB00C5
S1133BFC5B554152545D2053656E743A2025730A0B
S1043C0C00B3
S1133C0D5B554152545D20526573706F6E73653A06
S1083C1D2025730A00DC
S1103C2241542B43474143543D312C3100A4
S1103C2F41542B43474143543D302C310098
S1083C3C2D494E460075
S1083C412D696E660010
S1083C462B494E46006D
S1083C4B2B696E660008
S1133C500000000000005454522052454747455389
S1043C60005F
S10C3C615465726D696E616C001A
S10C3C6A256D2F25642F25790036
S10C3C7325483A254D3A25530079
S1133C7C53756E004D6F6E00547565005765640086
S1103C8C54687500467269005361740000AD
S1133C994A616E00466562004D61720041707200AE
S1133CA94D6179004A756E004A756C00417567006B
S1133CB9536570004F6374004E6F7600446563006A
S1043CC900F6
S1043CCA00F5
S1103CCB0007032004170201085710408071
S1073CD89508000047
S1133CDC5B53595354454D5D20546F6F206D616E89
S1133CEC79206661696C757265732E2053696D75E4
S1133CFC6C6174652073797374656D20726573657A
S1073D0C742E0A0003
S10B3D1041542B4343494400D4
S10F3D1841542B48545450494E49540067
S1133D2441542B48545450504152413D2243494438
S1073D34222C310008
S1133D3841542B48545450504152413D2255524C01
S1133D48222C2268747470733A2F2F656F6B36684F
S1133D58756E63677970706B6F742E6D2E706970F1
S10F3D6865647265616D2E6E6574220046
S1133D7441542B48545450444154413D35302C351E
S1073D8430303000A7
S1133D8841542B48545450414354494F4E3D3100FB
S1073D983230300091
S10F3D9C41542B485454505445524D00DF
S1133DA83031323334353637383941424344454665
S1133DB83031323334353637383961626364656695
S1073DC84E414E0016
S1073DCC6E616E00B2
S1133DD02020202020202020206828282828202077
S1133DE020202020202020202020202020202020CF
S1133DF04810101010101010101010101010101087
S1133E008484848484848484848410101010101026
S1133E10108181818181810101010101010101017F
S1133E200101010101010101010101101010101033
S1133E301082828282828202020202020202020250
S1133E4002020202020202020202021010101020F8
S1133E5000B506480649884205D00268043003B418
S1133E60904703BCF7E708BC18470000D83C0000A3
S1073E70DC3C000032
S1133E74C93E000000000020FD050000DB3E0000F8
S1133E84000600209C3E00002C00000001250000D8
S10B3E94513E0000EB050000A3
S1133E9C7C2400007C2400007C2400007C24000092
S1133EAC7C2400009C010020A0010020A40100201F
S10F3EBC010000000090D0030100000091
S1133EC8206861680834002200E042540139FCD5B6
S1053ED870472D
S1133EDA20686168A2680C3401E08B5C8354013A5F
S1073EEAFBD5704749
S9033525A2
